{
  "contractName": "LibBidDataV1",
  "abi": [
    {
      "inputs": [],
      "name": "V1",
      "outputs": [
        {
          "internalType": "bytes4",
          "name": "",
          "type": "bytes4"
        }
      ],
      "stateMutability": "view",
      "type": "function"
    }
  ],
  "bytecode": "0x60c1610025600b82828239805160001a60731461001857fe5b30600052607381538281f3fe730000000000000000000000000000000000000000301460806040526004361060335760003560e01c80633ee569bf146038575b600080fd5b603e6052565b604051604991906076565b60405180910390f35b7f4c23426613a5dc69e08fbd2787e6210aa679d4522e95a89d4dd88c4fd13a228381565b6001600160e01b03199190911681526020019056fea26469706673582212208e3cedb48f64c29b14644a9f6c5e962e5d6435d9a2d401def214f0964b778fa464736f6c63430007060033",
  "immutableReferences": {},
  "source": "// SPDX-License-Identifier: MIT\r\n\r\npragma solidity 0.7.6;\r\npragma abicoder v2;\r\n\r\n/// @dev library that works with data field of Bid struct\r\nlibrary LibBidDataV1 {\r\n    bytes4 constant public V1 = bytes4(keccak256(\"V1\"));\r\n\r\n    /// @dev struct of Bid data field, version 1\r\n    struct DataV1 {\r\n        // auction originFees\r\n        uint originFee;\r\n    }\r\n\r\n    /// @dev returns parsed data field of a Bid (so returns DataV1 struct)\r\n    function parse(bytes memory data, bytes4 dataType) internal pure returns (DataV1 memory aucData) {\r\n        if (dataType == V1) {\r\n            if (data.length > 0){\r\n                aucData = abi.decode(data, (DataV1));\r\n            }  \r\n        } else {\r\n            revert(\"wrong bid dataType\");\r\n        }\r\n    }\r\n}\r\n",
  "sourcePath": "@rarible\\auction\\contracts\\libs\\LibBidDataV1.sol",
  "compiler": {
    "name": "solc",
    "version": "0.7.6+commit.7338295f.Emscripten.clang"
  },
  "schemaVersion": "3.4.8",
  "updatedAt": "2022-08-05T17:11:10.517Z",
  "devdoc": {
    "details": "library that works with data field of Bid struct",
    "kind": "dev",
    "methods": {},
    "version": 1
  },
  "userdoc": {
    "kind": "user",
    "methods": {},
    "version": 1
  }
}