{
  "contractName": "LibOrderDataV2",
  "abi": [
    {
      "inputs": [],
      "name": "V2",
      "outputs": [
        {
          "internalType": "bytes4",
          "name": "",
          "type": "bytes4"
        }
      ],
      "stateMutability": "view",
      "type": "function"
    }
  ],
  "bytecode": "0x60c1610025600b82828239805160001a60731461001857fe5b30600052607381538281f3fe730000000000000000000000000000000000000000301460806040526004361060335760003560e01c806396cd25ef146038575b600080fd5b603e6052565b604051604991906076565b60405180910390f35b7f23d235efaf569b2b407d10f447247743508d1762a8e3a3aed85ccc0570dde35f81565b6001600160e01b03199190911681526020019056fea2646970667358221220f05209362a973c074742351aff6bc845a6b26259c3bec4a5fffdade4a3239b5964736f6c63430007060033",
  "immutableReferences": {},
  "source": "// SPDX-License-Identifier: MIT\r\n\r\npragma solidity 0.7.6;\r\npragma abicoder v2;\r\n\r\nimport \"@rarible/lib-part/contracts/LibPart.sol\";\r\n\r\nlibrary LibOrderDataV2 {\r\n    bytes4 constant public V2 = bytes4(keccak256(\"V2\"));\r\n\r\n    struct DataV2 {\r\n        LibPart.Part[] payouts;\r\n        LibPart.Part[] originFees;\r\n        bool isMakeFill;\r\n    }\r\n\r\n    function decodeOrderDataV2(bytes memory data) internal pure returns (DataV2 memory orderData) {\r\n        orderData = abi.decode(data, (DataV2));\r\n    }\r\n\r\n}\r\n",
  "sourcePath": "@rarible\\exchange-v2\\contracts\\libraries\\LibOrderDataV2.sol",
  "compiler": {
    "name": "solc",
    "version": "0.7.6+commit.7338295f.Emscripten.clang"
  },
  "schemaVersion": "3.4.8",
  "updatedAt": "2022-08-05T17:11:10.618Z",
  "devdoc": {
    "kind": "dev",
    "methods": {},
    "version": 1
  },
  "userdoc": {
    "kind": "user",
    "methods": {},
    "version": 1
  }
}