{
  "contractName": "LibOrderDataV1",
  "abi": [
    {
      "inputs": [],
      "name": "V1",
      "outputs": [
        {
          "internalType": "bytes4",
          "name": "",
          "type": "bytes4"
        }
      ],
      "stateMutability": "view",
      "type": "function"
    }
  ],
  "bytecode": "0x60c1610025600b82828239805160001a60731461001857fe5b30600052607381538281f3fe730000000000000000000000000000000000000000301460806040526004361060335760003560e01c80633ee569bf146038575b600080fd5b603e6052565b604051604991906076565b60405180910390f35b7f4c23426613a5dc69e08fbd2787e6210aa679d4522e95a89d4dd88c4fd13a228381565b6001600160e01b03199190911681526020019056fea2646970667358221220db42bf9c22193f0145499c7c0f90f55ec18f657c3b548ebc8b6a1c22c588583064736f6c63430007060033",
  "immutableReferences": {},
  "source": "// SPDX-License-Identifier: MIT\r\n\r\npragma solidity 0.7.6;\r\npragma abicoder v2;\r\n\r\nimport \"@rarible/lib-part/contracts/LibPart.sol\";\r\n\r\nlibrary LibOrderDataV1 {\r\n    bytes4 constant public V1 = bytes4(keccak256(\"V1\"));\r\n\r\n    struct DataV1 {\r\n        LibPart.Part[] payouts;\r\n        LibPart.Part[] originFees;\r\n    }\r\n\r\n    function decodeOrderDataV1(bytes memory data) internal pure returns (DataV1 memory orderData) {\r\n        orderData = abi.decode(data, (DataV1));\r\n    }\r\n}\r\n",
  "sourcePath": "@rarible\\exchange-v2\\contracts\\libraries\\LibOrderDataV1.sol",
  "compiler": {
    "name": "solc",
    "version": "0.7.6+commit.7338295f.Emscripten.clang"
  },
  "schemaVersion": "3.4.8",
  "updatedAt": "2022-08-05T17:11:10.617Z",
  "devdoc": {
    "kind": "dev",
    "methods": {},
    "version": 1
  },
  "userdoc": {
    "kind": "user",
    "methods": {},
    "version": 1
  }
}