{
  "contractName": "TokenToAuction",
  "abi": [
    {
      "inputs": [
        {
          "internalType": "address",
          "name": "_collection",
          "type": "address"
        },
        {
          "internalType": "uint256",
          "name": "tokenId",
          "type": "uint256"
        }
      ],
      "name": "getAuctionByToken",
      "outputs": [
        {
          "internalType": "uint256",
          "name": "",
          "type": "uint256"
        }
      ],
      "stateMutability": "view",
      "type": "function"
    }
  ],
  "bytecode": "0x6080604052348015600f57600080fd5b5060c48061001e6000396000f3fe6080604052348015600f57600080fd5b506004361060285760003560e01c8063152b2c0a14602d575b600080fd5b605660048036036040811015604157600080fd5b506001600160a01b0381351690602001356068565b60408051918252519081900360200190f35b6001600160a01b039190911660009081526020818152604080832093835292905220549056fea2646970667358221220cc9e8476ad81c6faebde702c183f635018949d9a392d0ef11aafabaa0a877d0e64736f6c63430007060033",
  "immutableReferences": {},
  "source": "// SPDX-License-Identifier: MIT\r\npragma solidity 0.7.6;\r\n\r\n/// @dev contract to add tokenToAuctionId functionality to auctionHouse\r\ncontract TokenToAuction {\r\n    /// @dev mapping to store auction ids for token address + token id (only stores erc-721 tokens)\r\n    mapping(address => mapping(uint256 => uint256)) private tokenToAuctionId;\r\n\r\n    /// @dev returns auction id by token address and token id\r\n    function getAuctionByToken(address _collection, uint tokenId) external view returns(uint) {\r\n        return tokenToAuctionId[_collection][tokenId];\r\n    }\r\n\r\n    /// @dev sets auction id for token address and token id\r\n    function setAuctionForToken(address token, uint tokenId, uint auctionId) internal {\r\n        tokenToAuctionId[token][tokenId] = auctionId;\r\n    }\r\n\r\n    /// @dev deletes auctionId from tokenToAuctionId\r\n    function deleteAuctionForToken(address token, uint tokenId) internal {\r\n        delete tokenToAuctionId[token][tokenId];\r\n    }\r\n    \r\n    uint256[50] private ______gap;\r\n}",
  "sourcePath": "@rarible\\auction\\contracts\\wrapper\\TokenToAuction.sol",
  "compiler": {
    "name": "solc",
    "version": "0.7.6+commit.7338295f.Emscripten.clang"
  },
  "schemaVersion": "3.4.8",
  "updatedAt": "2022-08-05T17:11:10.521Z",
  "devdoc": {
    "details": "contract to add tokenToAuctionId functionality to auctionHouse",
    "kind": "dev",
    "methods": {
      "getAuctionByToken(address,uint256)": {
        "details": "returns auction id by token address and token id"
      }
    },
    "stateVariables": {
      "tokenToAuctionId": {
        "details": "mapping to store auction ids for token address + token id (only stores erc-721 tokens)"
      }
    },
    "version": 1
  },
  "userdoc": {
    "kind": "user",
    "methods": {},
    "version": 1
  }
}